{
  "contractName": "ResidentRegistration",
  "abi": [
    {
      "inputs": [],
      "stateMutability": "nonpayable",
      "type": "constructor"
    },
    {
      "anonymous": false,
      "inputs": [
        {
          "indexed": true,
          "internalType": "address",
          "name": "previousOwner",
          "type": "address"
        },
        {
          "indexed": true,
          "internalType": "address",
          "name": "newOwner",
          "type": "address"
        }
      ],
      "name": "OwnershipTransferred",
      "type": "event"
    },
    {
      "inputs": [
        {
          "internalType": "uint256",
          "name": "day",
          "type": "uint256"
        },
        {
          "internalType": "uint256",
          "name": "month",
          "type": "uint256"
        },
        {
          "internalType": "uint256",
          "name": "year",
          "type": "uint256"
        }
      ],
      "name": "calculateAge",
      "outputs": [
        {
          "internalType": "uint256",
          "name": "",
          "type": "uint256"
        }
      ],
      "stateMutability": "view",
      "type": "function"
    },
    {
      "inputs": [],
      "name": "owner",
      "outputs": [
        {
          "internalType": "address",
          "name": "",
          "type": "address"
        }
      ],
      "stateMutability": "view",
      "type": "function"
    },
    {
      "inputs": [],
      "name": "renounceOwnership",
      "outputs": [],
      "stateMutability": "nonpayable",
      "type": "function"
    },
    {
      "inputs": [],
      "name": "residentManagement",
      "outputs": [
        {
          "internalType": "uint256",
          "name": "totalResident",
          "type": "uint256"
        }
      ],
      "stateMutability": "view",
      "type": "function"
    },
    {
      "inputs": [],
      "name": "taxRate",
      "outputs": [
        {
          "internalType": "uint256",
          "name": "",
          "type": "uint256"
        }
      ],
      "stateMutability": "view",
      "type": "function"
    },
    {
      "inputs": [
        {
          "internalType": "address",
          "name": "newOwner",
          "type": "address"
        }
      ],
      "name": "transferOwnership",
      "outputs": [],
      "stateMutability": "nonpayable",
      "type": "function"
    },
    {
      "inputs": [
        {
          "internalType": "uint256",
          "name": "_taxRate",
          "type": "uint256"
        }
      ],
      "name": "setTaxRate",
      "outputs": [],
      "stateMutability": "nonpayable",
      "type": "function"
    },
    {
      "inputs": [],
      "name": "getAllResident",
      "outputs": [
        {
          "internalType": "address[]",
          "name": "",
          "type": "address[]"
        }
      ],
      "stateMutability": "view",
      "type": "function"
    },
    {
      "inputs": [
        {
          "internalType": "address",
          "name": "_addr",
          "type": "address"
        }
      ],
      "name": "getResident",
      "outputs": [
        {
          "components": [
            {
              "internalType": "string",
              "name": "name",
              "type": "string"
            },
            {
              "internalType": "uint256",
              "name": "age",
              "type": "uint256"
            },
            {
              "internalType": "uint256",
              "name": "taxDept",
              "type": "uint256"
            },
            {
              "internalType": "uint256",
              "name": "income",
              "type": "uint256"
            },
            {
              "components": [
                {
                  "internalType": "string",
                  "name": "street",
                  "type": "string"
                },
                {
                  "internalType": "string",
                  "name": "city",
                  "type": "string"
                },
                {
                  "internalType": "string",
                  "name": "state",
                  "type": "string"
                },
                {
                  "internalType": "uint256",
                  "name": "zip",
                  "type": "uint256"
                }
              ],
              "internalType": "struct Address",
              "name": "addr",
              "type": "tuple"
            }
          ],
          "internalType": "struct Resident",
          "name": "",
          "type": "tuple"
        }
      ],
      "stateMutability": "view",
      "type": "function"
    },
    {
      "inputs": [
        {
          "internalType": "string",
          "name": "_name",
          "type": "string"
        }
      ],
      "name": "searchResidentByName",
      "outputs": [
        {
          "components": [
            {
              "internalType": "string",
              "name": "name",
              "type": "string"
            },
            {
              "internalType": "uint256",
              "name": "age",
              "type": "uint256"
            },
            {
              "internalType": "uint256",
              "name": "taxDept",
              "type": "uint256"
            },
            {
              "internalType": "uint256",
              "name": "income",
              "type": "uint256"
            },
            {
              "components": [
                {
                  "internalType": "string",
                  "name": "street",
                  "type": "string"
                },
                {
                  "internalType": "string",
                  "name": "city",
                  "type": "string"
                },
                {
                  "internalType": "string",
                  "name": "state",
                  "type": "string"
                },
                {
                  "internalType": "uint256",
                  "name": "zip",
                  "type": "uint256"
                }
              ],
              "internalType": "struct Address",
              "name": "addr",
              "type": "tuple"
            }
          ],
          "internalType": "struct Resident",
          "name": "",
          "type": "tuple"
        }
      ],
      "stateMutability": "view",
      "type": "function"
    },
    {
      "inputs": [
        {
          "internalType": "string",
          "name": "_name",
          "type": "string"
        },
        {
          "internalType": "string",
          "name": "_street",
          "type": "string"
        },
        {
          "internalType": "string",
          "name": "_city",
          "type": "string"
        },
        {
          "internalType": "string",
          "name": "_state",
          "type": "string"
        },
        {
          "internalType": "uint256",
          "name": "_zip",
          "type": "uint256"
        },
        {
          "internalType": "uint256",
          "name": "DoBDay",
          "type": "uint256"
        },
        {
          "internalType": "uint256",
          "name": "DoBMonth",
          "type": "uint256"
        },
        {
          "internalType": "uint256",
          "name": "DoBYear",
          "type": "uint256"
        }
      ],
      "name": "registerResident",
      "outputs": [],
      "stateMutability": "nonpayable",
      "type": "function"
    },
    {
      "inputs": [
        {
          "internalType": "string",
          "name": "_name",
          "type": "string"
        },
        {
          "internalType": "string",
          "name": "_street",
          "type": "string"
        },
        {
          "internalType": "string",
          "name": "_city",
          "type": "string"
        },
        {
          "internalType": "string",
          "name": "_state",
          "type": "string"
        },
        {
          "internalType": "uint256",
          "name": "_zip",
          "type": "uint256"
        },
        {
          "internalType": "uint256",
          "name": "DoBDay",
          "type": "uint256"
        },
        {
          "internalType": "uint256",
          "name": "DoBMonth",
          "type": "uint256"
        },
        {
          "internalType": "uint256",
          "name": "DoBYear",
          "type": "uint256"
        }
      ],
      "name": "updateResident",
      "outputs": [],
      "stateMutability": "nonpayable",
      "type": "function"
    },
    {
      "inputs": [
        {
          "internalType": "uint256",
          "name": "_income",
          "type": "uint256"
        }
      ],
      "name": "declareIncome",
      "outputs": [],
      "stateMutability": "nonpayable",
      "type": "function"
    },
    {
      "inputs": [],
      "name": "payTax",
      "outputs": [
        {
          "internalType": "uint256",
          "name": "",
          "type": "uint256"
        }
      ],
      "stateMutability": "payable",
      "type": "function"
    },
    {
      "inputs": [],
      "name": "getMeResident",
      "outputs": [
        {
          "components": [
            {
              "internalType": "string",
              "name": "name",
              "type": "string"
            },
            {
              "internalType": "uint256",
              "name": "age",
              "type": "uint256"
            },
            {
              "internalType": "uint256",
              "name": "taxDept",
              "type": "uint256"
            },
            {
              "internalType": "uint256",
              "name": "income",
              "type": "uint256"
            },
            {
              "components": [
                {
                  "internalType": "string",
                  "name": "street",
                  "type": "string"
                },
                {
                  "internalType": "string",
                  "name": "city",
                  "type": "string"
                },
                {
                  "internalType": "string",
                  "name": "state",
                  "type": "string"
                },
                {
                  "internalType": "uint256",
                  "name": "zip",
                  "type": "uint256"
                }
              ],
              "internalType": "struct Address",
              "name": "addr",
              "type": "tuple"
            }
          ],
          "internalType": "struct Resident",
          "name": "",
          "type": "tuple"
        }
      ],
      "stateMutability": "view",
      "type": "function"
    },
    {
      "inputs": [],
      "name": "getTaxDept",
      "outputs": [
        {
          "internalType": "uint256",
          "name": "",
          "type": "uint256"
        }
      ],
      "stateMutability": "view",
      "type": "function"
    }
  ],
  "bytecode": "0x6080604052600a6004553480156200001657600080fd5b50620000376200002b6200004860201b60201c565b6200005060201b60201c565b600060016000018190555062000114565b600033905090565b60008060009054906101000a900473ffffffffffffffffffffffffffffffffffffffff169050816000806101000a81548173ffffffffffffffffffffffffffffffffffffffff021916908373ffffffffffffffffffffffffffffffffffffffff1602179055508173ffffffffffffffffffffffffffffffffffffffff168173ffffffffffffffffffffffffffffffffffffffff167f8be0079c531659141344cd1fd0a4f28419497f9722a3daafe3b4186f6b6457e060405160405180910390a35050565b61331b80620001246000396000f3fe6080604052600436106100f35760003560e01c8063771a3a1d1161008a578063c6d69a3011610059578063c6d69a30146102f9578063d00be52014610322578063d9534b7f1461034d578063f2fde38b1461038a576100f3565b8063771a3a1d146102295780638da5cb5b14610254578063a562ded61461027f578063a7107f02146102bc576100f3565b80635d43c2df116100c65780635d43c2df1461019357806367d3af76146101be578063715018a6146101e9578063716264ca14610200576100f3565b806303eaf0c5146100f8578063195dc5ed146101215780632912ba5f1461014c5780635747478c1461016a575b600080fd5b34801561010457600080fd5b5061011f600480360381019061011a919061254f565b6103b3565b005b34801561012d57600080fd5b506101366107d8565b6040516101439190612765565b60405180910390f35b610154610871565b6040516101619190612796565b60405180910390f35b34801561017657600080fd5b50610191600480360381019061018c919061254f565b610b77565b005b34801561019f57600080fd5b506101a8610f0e565b6040516101b59190612936565b60405180910390f35b3480156101ca57600080fd5b506101d3611272565b6040516101e09190612796565b60405180910390f35b3480156101f557600080fd5b506101fe611344565b005b34801561020c57600080fd5b5061022760048036038101906102229190612958565b611358565b005b34801561023557600080fd5b5061023e61153f565b60405161024b9190612796565b60405180910390f35b34801561026057600080fd5b50610269611545565b6040516102769190612994565b60405180910390f35b34801561028b57600080fd5b506102a660048036038101906102a191906129af565b61156e565b6040516102b39190612796565b60405180910390f35b3480156102c857600080fd5b506102e360048036038101906102de9190612a2e565b611600565b6040516102f09190612936565b60405180910390f35b34801561030557600080fd5b50610320600480360381019061031b9190612958565b6118e7565b005b34801561032e57600080fd5b506103376118f9565b6040516103449190612796565b60405180910390f35b34801561035957600080fd5b50610374600480360381019061036f9190612a5b565b611905565b6040516103819190612936565b60405180910390f35b34801561039657600080fd5b506103b160048036038101906103ac9190612a2e565b611d6c565b005b60006001800160003373ffffffffffffffffffffffffffffffffffffffff1673ffffffffffffffffffffffffffffffffffffffff168152602001908152602001600020600101541461043a576040517f08c379a000000000000000000000000000000000000000000000000000000000815260040161043190612b01565b60405180910390fd5b876001800160003373ffffffffffffffffffffffffffffffffffffffff1673ffffffffffffffffffffffffffffffffffffffff16815260200190815260200160002060000190805190602001906104929291906122bf565b503073ffffffffffffffffffffffffffffffffffffffff1663a562ded68484846040518463ffffffff1660e01b81526004016104d093929190612b21565b602060405180830381865afa1580156104ed573d6000803e3d6000fd5b505050506040513d601f19601f820116820180604052508101906105119190612b6d565b6001800160003373ffffffffffffffffffffffffffffffffffffffff1673ffffffffffffffffffffffffffffffffffffffff1681526020019081526020016000206001018190555060006001800160003373ffffffffffffffffffffffffffffffffffffffff1673ffffffffffffffffffffffffffffffffffffffff1681526020019081526020016000206003018190555060006001800160003373ffffffffffffffffffffffffffffffffffffffff1673ffffffffffffffffffffffffffffffffffffffff16815260200190815260200160002060020181905550866001800160003373ffffffffffffffffffffffffffffffffffffffff1673ffffffffffffffffffffffffffffffffffffffff16815260200190815260200160002060040160000190805190602001906106489291906122bf565b50856001800160003373ffffffffffffffffffffffffffffffffffffffff1673ffffffffffffffffffffffffffffffffffffffff16815260200190815260200160002060040160010190805190602001906106a49291906122bf565b50846001800160003373ffffffffffffffffffffffffffffffffffffffff1673ffffffffffffffffffffffffffffffffffffffff16815260200190815260200160002060040160020190805190602001906107009291906122bf565b50836001800160003373ffffffffffffffffffffffffffffffffffffffff1673ffffffffffffffffffffffffffffffffffffffff168152602001908152602001600020600401600301819055506001600201339080600181540180825580915050600190039060005260206000200160009091909190916101000a81548173ffffffffffffffffffffffffffffffffffffffff021916908373ffffffffffffffffffffffffffffffffffffffff160217905550600160000160008154809291906107c990612bc9565b91905055505050505050505050565b60606107e2611def565b600160020180548060200260200160405190810160405280929190818152602001828054801561086757602002820191906000526020600020905b8160009054906101000a900473ffffffffffffffffffffffffffffffffffffffff1673ffffffffffffffffffffffffffffffffffffffff168152602001906001019080831161081d575b5050505050905090565b6000806001800160003373ffffffffffffffffffffffffffffffffffffffff1673ffffffffffffffffffffffffffffffffffffffff16815260200190815260200160002060010154036108f9576040517f08c379a00000000000000000000000000000000000000000000000000000000081526004016108f090612c5d565b60405180910390fd5b60126001800160003373ffffffffffffffffffffffffffffffffffffffff1673ffffffffffffffffffffffffffffffffffffffff168152602001908152602001600020600101541015610981576040517f08c379a000000000000000000000000000000000000000000000000000000000815260040161097890612cc9565b60405180910390fd5b60006001800160003373ffffffffffffffffffffffffffffffffffffffff1673ffffffffffffffffffffffffffffffffffffffff1681526020019081526020016000206001015403610a08576040517f08c379a00000000000000000000000000000000000000000000000000000000081526004016109ff90612c5d565b60405180910390fd5b60006001800160003373ffffffffffffffffffffffffffffffffffffffff1673ffffffffffffffffffffffffffffffffffffffff1681526020019081526020016000206002015403610a8f576040517f08c379a0000000000000000000000000000000000000000000000000000000008152600401610a8690612d35565b60405180910390fd5b346001800160003373ffffffffffffffffffffffffffffffffffffffff1673ffffffffffffffffffffffffffffffffffffffff168152602001908152602001600020600201541115610b16576040517f08c379a0000000000000000000000000000000000000000000000000000000008152600401610b0d90612da1565b60405180910390fd5b346001800160003373ffffffffffffffffffffffffffffffffffffffff1673ffffffffffffffffffffffffffffffffffffffff1681526020019081526020016000206002016000828254610b6a9190612dc1565b9250508190555034905090565b60006001800160003373ffffffffffffffffffffffffffffffffffffffff1673ffffffffffffffffffffffffffffffffffffffff1681526020019081526020016000206001015403610bfe576040517f08c379a0000000000000000000000000000000000000000000000000000000008152600401610bf590612c5d565b60405180910390fd5b60006001800160003373ffffffffffffffffffffffffffffffffffffffff1673ffffffffffffffffffffffffffffffffffffffff1681526020019081526020016000206001015403610c85576040517f08c379a0000000000000000000000000000000000000000000000000000000008152600401610c7c90612c5d565b60405180910390fd5b876001800160003373ffffffffffffffffffffffffffffffffffffffff1673ffffffffffffffffffffffffffffffffffffffff1681526020019081526020016000206000019080519060200190610cdd9291906122bf565b503073ffffffffffffffffffffffffffffffffffffffff1663a562ded68484846040518463ffffffff1660e01b8152600401610d1b93929190612b21565b602060405180830381865afa158015610d38573d6000803e3d6000fd5b505050506040513d601f19601f82011682018060405250810190610d5c9190612b6d565b6001800160003373ffffffffffffffffffffffffffffffffffffffff1673ffffffffffffffffffffffffffffffffffffffff16815260200190815260200160002060010181905550866001800160003373ffffffffffffffffffffffffffffffffffffffff1673ffffffffffffffffffffffffffffffffffffffff1681526020019081526020016000206004016000019080519060200190610dff9291906122bf565b50856001800160003373ffffffffffffffffffffffffffffffffffffffff1673ffffffffffffffffffffffffffffffffffffffff1681526020019081526020016000206004016001019080519060200190610e5b9291906122bf565b50846001800160003373ffffffffffffffffffffffffffffffffffffffff1673ffffffffffffffffffffffffffffffffffffffff1681526020019081526020016000206004016002019080519060200190610eb79291906122bf565b50836001800160003373ffffffffffffffffffffffffffffffffffffffff1673ffffffffffffffffffffffffffffffffffffffff168152602001908152602001600020600401600301819055505050505050505050565b610f16612345565b60006001800160003373ffffffffffffffffffffffffffffffffffffffff1673ffffffffffffffffffffffffffffffffffffffff1681526020019081526020016000206001015403610f9d576040517f08c379a0000000000000000000000000000000000000000000000000000000008152600401610f9490612c5d565b60405180910390fd5b6001800160003373ffffffffffffffffffffffffffffffffffffffff1673ffffffffffffffffffffffffffffffffffffffff1681526020019081526020016000206040518060a0016040529081600082018054610ff990612e24565b80601f016020809104026020016040519081016040528092919081815260200182805461102590612e24565b80156110725780601f1061104757610100808354040283529160200191611072565b820191906000526020600020905b81548152906001019060200180831161105557829003601f168201915b50505050508152602001600182015481526020016002820154815260200160038201548152602001600482016040518060800160405290816000820180546110b990612e24565b80601f01602080910402602001604051908101604052809291908181526020018280546110e590612e24565b80156111325780601f1061110757610100808354040283529160200191611132565b820191906000526020600020905b81548152906001019060200180831161111557829003601f168201915b5050505050815260200160018201805461114b90612e24565b80601f016020809104026020016040519081016040528092919081815260200182805461117790612e24565b80156111c45780601f10611199576101008083540402835291602001916111c4565b820191906000526020600020905b8154815290600101906020018083116111a757829003601f168201915b505050505081526020016002820180546111dd90612e24565b80601f016020809104026020016040519081016040528092919081815260200182805461120990612e24565b80156112565780601f1061122b57610100808354040283529160200191611256565b820191906000526020600020905b81548152906001019060200180831161123957829003601f168201915b5050505050815260200160038201548152505081525050905090565b6000806001800160003373ffffffffffffffffffffffffffffffffffffffff1673ffffffffffffffffffffffffffffffffffffffff16815260200190815260200160002060010154036112fa576040517f08c379a00000000000000000000000000000000000000000000000000000000081526004016112f190612c5d565b60405180910390fd5b6001800160003373ffffffffffffffffffffffffffffffffffffffff1673ffffffffffffffffffffffffffffffffffffffff16815260200190815260200160002060020154905090565b61134c611def565b6113566000611e6d565b565b60006001800160003373ffffffffffffffffffffffffffffffffffffffff1673ffffffffffffffffffffffffffffffffffffffff16815260200190815260200160002060010154036113df576040517f08c379a00000000000000000000000000000000000000000000000000000000081526004016113d690612c5d565b60405180910390fd5b60126001800160003373ffffffffffffffffffffffffffffffffffffffff1673ffffffffffffffffffffffffffffffffffffffff168152602001908152602001600020600101541015611467576040517f08c379a000000000000000000000000000000000000000000000000000000000815260040161145e90612cc9565b60405180910390fd5b806001800160003373ffffffffffffffffffffffffffffffffffffffff1673ffffffffffffffffffffffffffffffffffffffff16815260200190815260200160002060030160008282546114bb9190612e55565b9250508190555060006064600454836114d49190612eab565b6114de9190612f34565b9050806001800160003373ffffffffffffffffffffffffffffffffffffffff1673ffffffffffffffffffffffffffffffffffffffff16815260200190815260200160002060020160008282546115349190612e55565b925050819055505050565b60045481565b60008060009054906101000a900473ffffffffffffffffffffffffffffffffffffffff16905090565b600061157b848484611f31565b6115ba576040517f08c379a00000000000000000000000000000000000000000000000000000000081526004016115b190612fb1565b60405180910390fd5b600042905060006115cc868686611fa0565b9050600081836115dc9190612dc1565b905060006301e13380826115f09190612f34565b9050809450505050509392505050565b611608612345565b611610611def565b6001800160008373ffffffffffffffffffffffffffffffffffffffff1673ffffffffffffffffffffffffffffffffffffffff1681526020019081526020016000206040518060a001604052908160008201805461166c90612e24565b80601f016020809104026020016040519081016040528092919081815260200182805461169890612e24565b80156116e55780601f106116ba576101008083540402835291602001916116e5565b820191906000526020600020905b8154815290600101906020018083116116c857829003601f168201915b505050505081526020016001820154815260200160028201548152602001600382015481526020016004820160405180608001604052908160008201805461172c90612e24565b80601f016020809104026020016040519081016040528092919081815260200182805461175890612e24565b80156117a55780601f1061177a576101008083540402835291602001916117a5565b820191906000526020600020905b81548152906001019060200180831161178857829003601f168201915b505050505081526020016001820180546117be90612e24565b80601f01602080910402602001604051908101604052809291908181526020018280546117ea90612e24565b80156118375780601f1061180c57610100808354040283529160200191611837565b820191906000526020600020905b81548152906001019060200180831161181a57829003601f168201915b5050505050815260200160028201805461185090612e24565b80601f016020809104026020016040519081016040528092919081815260200182805461187c90612e24565b80156118c95780601f1061189e576101008083540402835291602001916118c9565b820191906000526020600020905b8154815290600101906020018083116118ac57829003601f168201915b50505050508152602001600382015481525050815250509050919050565b6118ef611def565b8060048190555050565b60018060000154905081565b61190d612345565b611915611def565b60005b600160020180549050811015611d2b5782604051602001611939919061300d565b604051602081830303815290604052805190602001206001800160006001600201848154811061196c5761196b613024565b5b9060005260206000200160009054906101000a900473ffffffffffffffffffffffffffffffffffffffff1673ffffffffffffffffffffffffffffffffffffffff1673ffffffffffffffffffffffffffffffffffffffff1681526020019081526020016000206000016040516020016119e491906130e7565b6040516020818303038152906040528051906020012003611d185760018001600060016002018381548110611a1c57611a1b613024565b5b9060005260206000200160009054906101000a900473ffffffffffffffffffffffffffffffffffffffff1673ffffffffffffffffffffffffffffffffffffffff1673ffffffffffffffffffffffffffffffffffffffff1681526020019081526020016000206040518060a0016040529081600082018054611a9c90612e24565b80601f0160208091040260200160405190810160405280929190818152602001828054611ac890612e24565b8015611b155780601f10611aea57610100808354040283529160200191611b15565b820191906000526020600020905b815481529060010190602001808311611af857829003601f168201915b5050505050815260200160018201548152602001600282015481526020016003820154815260200160048201604051806080016040529081600082018054611b5c90612e24565b80601f0160208091040260200160405190810160405280929190818152602001828054611b8890612e24565b8015611bd55780601f10611baa57610100808354040283529160200191611bd5565b820191906000526020600020905b815481529060010190602001808311611bb857829003601f168201915b50505050508152602001600182018054611bee90612e24565b80601f0160208091040260200160405190810160405280929190818152602001828054611c1a90612e24565b8015611c675780601f10611c3c57610100808354040283529160200191611c67565b820191906000526020600020905b815481529060010190602001808311611c4a57829003601f168201915b50505050508152602001600282018054611c8090612e24565b80601f0160208091040260200160405190810160405280929190818152602001828054611cac90612e24565b8015611cf95780601f10611cce57610100808354040283529160200191611cf9565b820191906000526020600020905b815481529060010190602001808311611cdc57829003601f168201915b5050505050815260200160038201548152505081525050915050611d67565b8080611d2390612bc9565b915050611918565b506040517f08c379a0000000000000000000000000000000000000000000000000000000008152600401611d5e9061314a565b60405180910390fd5b919050565b611d74611def565b600073ffffffffffffffffffffffffffffffffffffffff168173ffffffffffffffffffffffffffffffffffffffff1603611de3576040517f08c379a0000000000000000000000000000000000000000000000000000000008152600401611dda906131dc565b60405180910390fd5b611dec81611e6d565b50565b611df7612192565b73ffffffffffffffffffffffffffffffffffffffff16611e15611545565b73ffffffffffffffffffffffffffffffffffffffff1614611e6b576040517f08c379a0000000000000000000000000000000000000000000000000000000008152600401611e6290613248565b60405180910390fd5b565b60008060009054906101000a900473ffffffffffffffffffffffffffffffffffffffff169050816000806101000a81548173ffffffffffffffffffffffffffffffffffffffff021916908373ffffffffffffffffffffffffffffffffffffffff1602179055508173ffffffffffffffffffffffffffffffffffffffff168173ffffffffffffffffffffffffffffffffffffffff167f8be0079c531659141344cd1fd0a4f28419497f9722a3daafe3b4186f6b6457e060405160405180910390a35050565b60006107b2821080611f44575061083482115b15611f525760009050611f99565b6001831080611f615750600c83115b15611f6f5760009050611f99565b6001841080611f865750611f83838361219a565b84115b15611f945760009050611f99565b600190505b9392505050565b6000611fad848484611f31565b611fec576040517f08c379a0000000000000000000000000000000000000000000000000000000008152600401611fe390612fb1565b60405180910390fd5b60006301e133806107b2846120019190612dc1565b61200b9190612eab565b90506201518060046107b1856120219190612dc1565b61202b9190612f34565b6120359190612eab565b816120409190612e55565b90506000604051806101800160405280601f60ff168152602001601c60ff168152602001601f60ff168152602001601e60ff168152602001601f60ff168152602001601e60ff168152602001601f60ff168152602001601f60ff168152602001601e60ff168152602001601f60ff168152602001601e60ff168152602001601f60ff1681525090506000600190505b8581101561215d5762015180826001836120e99190612dc1565b600c81106120fa576120f9613024565b5b602002015160ff1661210c9190613277565b62ffffff168361211c9190612e55565b9250600281148015612133575061213285612276565b5b1561214a5762015180836121479190612e55565b92505b808061215590612bc9565b9150506120cf565b506201518060018761216f9190612dc1565b6121799190612eab565b826121849190612e55565b915081925050509392505050565b600033905090565b600080604051806101800160405280601f60ff168152602001601c60ff168152602001601f60ff168152602001601e60ff168152602001601f60ff168152602001601e60ff168152602001601f60ff168152602001601f60ff168152602001601e60ff168152602001601f60ff168152602001601e60ff168152602001601f60ff168152509050600284148015612236575061223583612276565b5b1561224557601d915050612270565b806001856122539190612dc1565b600c811061226457612263613024565b5b602002015160ff169150505b92915050565b60008060048361228691906132b4565b1480156122b85750600060648361229d91906132b4565b1415806122b757506000610190836122b591906132b4565b145b5b9050919050565b8280546122cb90612e24565b90600052602060002090601f0160209004810192826122ed5760008555612334565b82601f1061230657805160ff1916838001178555612334565b82800160010185558215612334579182015b82811115612333578251825591602001919060010190612318565b5b509050612341919061237a565b5090565b6040518060a0016040528060608152602001600081526020016000815260200160008152602001612374612397565b81525090565b5b8082111561239357600081600090555060010161237b565b5090565b6040518060800160405280606081526020016060815260200160608152602001600081525090565b6000604051905090565b600080fd5b600080fd5b600080fd5b600080fd5b6000601f19601f8301169050919050565b7f4e487b7100000000000000000000000000000000000000000000000000000000600052604160045260246000fd5b612426826123dd565b810181811067ffffffffffffffff82111715612445576124446123ee565b5b80604052505050565b60006124586123bf565b9050612464828261241d565b919050565b600067ffffffffffffffff821115612484576124836123ee565b5b61248d826123dd565b9050602081019050919050565b82818337600083830152505050565b60006124bc6124b784612469565b61244e565b9050828152602081018484840111156124d8576124d76123d8565b5b6124e384828561249a565b509392505050565b600082601f830112612500576124ff6123d3565b5b81356125108482602086016124a9565b91505092915050565b6000819050919050565b61252c81612519565b811461253757600080fd5b50565b60008135905061254981612523565b92915050565b600080600080600080600080610100898b0312156125705761256f6123c9565b5b600089013567ffffffffffffffff81111561258e5761258d6123ce565b5b61259a8b828c016124eb565b985050602089013567ffffffffffffffff8111156125bb576125ba6123ce565b5b6125c78b828c016124eb565b975050604089013567ffffffffffffffff8111156125e8576125e76123ce565b5b6125f48b828c016124eb565b965050606089013567ffffffffffffffff811115612615576126146123ce565b5b6126218b828c016124eb565b95505060806126328b828c0161253a565b94505060a06126438b828c0161253a565b93505060c06126548b828c0161253a565b92505060e06126658b828c0161253a565b9150509295985092959890939650565b600081519050919050565b600082825260208201905092915050565b6000819050602082019050919050565b600073ffffffffffffffffffffffffffffffffffffffff82169050919050565b60006126cc826126a1565b9050919050565b6126dc816126c1565b82525050565b60006126ee83836126d3565b60208301905092915050565b6000602082019050919050565b600061271282612675565b61271c8185612680565b935061272783612691565b8060005b8381101561275857815161273f88826126e2565b975061274a836126fa565b92505060018101905061272b565b5085935050505092915050565b6000602082019050818103600083015261277f8184612707565b905092915050565b61279081612519565b82525050565b60006020820190506127ab6000830184612787565b92915050565b600081519050919050565b600082825260208201905092915050565b60005b838110156127eb5780820151818401526020810190506127d0565b838111156127fa576000848401525b50505050565b600061280b826127b1565b61281581856127bc565b93506128258185602086016127cd565b61282e816123dd565b840191505092915050565b61284281612519565b82525050565b600060808301600083015184820360008601526128658282612800565b9150506020830151848203602086015261287f8282612800565b915050604083015184820360408601526128998282612800565b91505060608301516128ae6060860182612839565b508091505092915050565b600060a08301600083015184820360008601526128d68282612800565b91505060208301516128eb6020860182612839565b5060408301516128fe6040860182612839565b5060608301516129116060860182612839565b50608083015184820360808601526129298282612848565b9150508091505092915050565b6000602082019050818103600083015261295081846128b9565b905092915050565b60006020828403121561296e5761296d6123c9565b5b600061297c8482850161253a565b91505092915050565b61298e816126c1565b82525050565b60006020820190506129a96000830184612985565b92915050565b6000806000606084860312156129c8576129c76123c9565b5b60006129d68682870161253a565b93505060206129e78682870161253a565b92505060406129f88682870161253a565b9150509250925092565b612a0b816126c1565b8114612a1657600080fd5b50565b600081359050612a2881612a02565b92915050565b600060208284031215612a4457612a436123c9565b5b6000612a5284828501612a19565b91505092915050565b600060208284031215612a7157612a706123c9565b5b600082013567ffffffffffffffff811115612a8f57612a8e6123ce565b5b612a9b848285016124eb565b91505092915050565b600082825260208201905092915050565b7f5265736964656e7420616c726561647920726567697374657265640000000000600082015250565b6000612aeb601b83612aa4565b9150612af682612ab5565b602082019050919050565b60006020820190508181036000830152612b1a81612ade565b9050919050565b6000606082019050612b366000830186612787565b612b436020830185612787565b612b506040830184612787565b949350505050565b600081519050612b6781612523565b92915050565b600060208284031215612b8357612b826123c9565b5b6000612b9184828501612b58565b91505092915050565b7f4e487b7100000000000000000000000000000000000000000000000000000000600052601160045260246000fd5b6000612bd482612519565b91507fffffffffffffffffffffffffffffffffffffffffffffffffffffffffffffffff8203612c0657612c05612b9a565b5b600182019050919050565b7f5265736964656e74206e6f742072656769737465726564000000000000000000600082015250565b6000612c47601783612aa4565b9150612c5282612c11565b602082019050919050565b60006020820190508181036000830152612c7681612c3a565b9050919050565b7f546865207265736964656e74206973206e6f74206164756c7400000000000000600082015250565b6000612cb3601983612aa4565b9150612cbe82612c7d565b602082019050919050565b60006020820190508181036000830152612ce281612ca6565b9050919050565b7f4e6f207461782064657074000000000000000000000000000000000000000000600082015250565b6000612d1f600b83612aa4565b9150612d2a82612ce9565b602082019050919050565b60006020820190508181036000830152612d4e81612d12565b9050919050565b7f496e73756666696369656e7420616d6f756e7400000000000000000000000000600082015250565b6000612d8b601383612aa4565b9150612d9682612d55565b602082019050919050565b60006020820190508181036000830152612dba81612d7e565b9050919050565b6000612dcc82612519565b9150612dd783612519565b925082821015612dea57612de9612b9a565b5b828203905092915050565b7f4e487b7100000000000000000000000000000000000000000000000000000000600052602260045260246000fd5b60006002820490506001821680612e3c57607f821691505b602082108103612e4f57612e4e612df5565b5b50919050565b6000612e6082612519565b9150612e6b83612519565b9250827fffffffffffffffffffffffffffffffffffffffffffffffffffffffffffffffff03821115612ea057612e9f612b9a565b5b828201905092915050565b6000612eb682612519565b9150612ec183612519565b9250817fffffffffffffffffffffffffffffffffffffffffffffffffffffffffffffffff0483118215151615612efa57612ef9612b9a565b5b828202905092915050565b7f4e487b7100000000000000000000000000000000000000000000000000000000600052601260045260246000fd5b6000612f3f82612519565b9150612f4a83612519565b925082612f5a57612f59612f05565b5b828204905092915050565b7f496e76616c696420646174650000000000000000000000000000000000000000600082015250565b6000612f9b600c83612aa4565b9150612fa682612f65565b602082019050919050565b60006020820190508181036000830152612fca81612f8e565b9050919050565b600081905092915050565b6000612fe7826127b1565b612ff18185612fd1565b93506130018185602086016127cd565b80840191505092915050565b60006130198284612fdc565b915081905092915050565b7f4e487b7100000000000000000000000000000000000000000000000000000000600052603260045260246000fd5b60008190508160005260206000209050919050565b6000815461307581612e24565b61307f8186612fd1565b9450600182166000811461309a57600181146130ab576130de565b60ff198316865281860193506130de565b6130b485613053565b60005b838110156130d6578154818901526001820191506020810190506130b7565b838801955050505b50505092915050565b60006130f38284613068565b915081905092915050565b7f5265736964656e74206e6f7420666f756e640000000000000000000000000000600082015250565b6000613134601283612aa4565b915061313f826130fe565b602082019050919050565b6000602082019050818103600083015261316381613127565b9050919050565b7f4f776e61626c653a206e6577206f776e657220697320746865207a65726f206160008201527f6464726573730000000000000000000000000000000000000000000000000000602082015250565b60006131c6602683612aa4565b91506131d18261316a565b604082019050919050565b600060208201905081810360008301526131f5816131b9565b9050919050565b7f4f776e61626c653a2063616c6c6572206973206e6f7420746865206f776e6572600082015250565b6000613232602083612aa4565b915061323d826131fc565b602082019050919050565b6000602082019050818103600083015261326181613225565b9050919050565b600062ffffff82169050919050565b600061328282613268565b915061328d83613268565b92508162ffffff04831182151516156132a9576132a8612b9a565b5b828202905092915050565b60006132bf82612519565b91506132ca83612519565b9250826132da576132d9612f05565b5b82820690509291505056fea26469706673582212202928b8714e904f88fc6e94941afa7a8cd83503aeda41c42e2784d86ce1e4196e64736f6c634300080d0033",
  "immutableReferences": {},
  "source": "// SPDX-License-Identifier: MIT\r\npragma solidity >=0.8.0 <0.9.0;\r\nimport \"@openzeppelin/contracts/access/Ownable.sol\";\r\nimport \"./AgeCalculator.sol\";\r\n\r\nstruct Address {\r\n    string street;\r\n    string city;\r\n    string state;\r\n    uint zip;\r\n}\r\n\r\nstruct Resident {\r\n    string name;\r\n    uint age;\r\n    uint taxDept;\r\n    uint income;\r\n    Address addr;\r\n}\r\nstruct ResidentManagement {\r\n    uint totalResident;\r\n    mapping(address => Resident) residentList;\r\n    address[] residentAddresses;\r\n}\r\n\r\ncontract ResidentRegistration is Ownable, AgeCalculator {\r\n    ResidentManagement public residentManagement;\r\n    uint public taxRate = 10;\r\n\r\n    modifier shouldExist() {\r\n        require(\r\n            residentManagement.residentList[msg.sender].age != 0,\r\n            \"Resident not registered\"\r\n        );\r\n        _;\r\n    }\r\n\r\n    modifier shouldNotExist() {\r\n        require(\r\n            residentManagement.residentList[msg.sender].age == 0,\r\n            \"Resident already registered\"\r\n        );\r\n        _;\r\n    }\r\n\r\n    modifier isAdult() {\r\n        require(\r\n            residentManagement.residentList[msg.sender].age >= 18,\r\n            \"The resident is not adult\"\r\n        );\r\n        _;\r\n    }\r\n\r\n    constructor() {\r\n        residentManagement.totalResident = 0;\r\n    }\r\n\r\n    // owner functions\r\n    function setTaxRate(uint _taxRate) public onlyOwner {\r\n        taxRate = _taxRate;\r\n    }\r\n\r\n    function getAllResident() public view onlyOwner returns (address[] memory) {\r\n        return residentManagement.residentAddresses;\r\n    }\r\n\r\n    function getResident(\r\n        address _addr\r\n    ) public view onlyOwner returns (Resident memory) {\r\n        return residentManagement.residentList[_addr];\r\n    }\r\n\r\n    function searchResidentByName(\r\n        string memory _name\r\n    ) public view onlyOwner returns (Resident memory) {\r\n        for (uint i = 0; i < residentManagement.residentAddresses.length; i++) {\r\n            if (\r\n                keccak256(\r\n                    abi.encodePacked(\r\n                        residentManagement\r\n                            .residentList[\r\n                                residentManagement.residentAddresses[i]\r\n                            ]\r\n                            .name\r\n                    )\r\n                ) == keccak256(abi.encodePacked(_name))\r\n            ) {\r\n                return\r\n                    residentManagement.residentList[\r\n                        residentManagement.residentAddresses[i]\r\n                    ];\r\n            }\r\n        }\r\n        revert(\"Resident not found\");\r\n    }\r\n\r\n    // owner functions end\r\n\r\n    // resident functions\r\n    //\"selami\", \"sokak\", \"samsun\", \"mahalle\", 55800, 31,07,1999\r\n    function registerResident(\r\n        string memory _name,\r\n        string memory _street,\r\n        string memory _city,\r\n        string memory _state,\r\n        uint _zip,\r\n        uint DoBDay,\r\n        uint DoBMonth,\r\n        uint DoBYear\r\n    ) public shouldNotExist {\r\n        residentManagement.residentList[msg.sender].name = _name;\r\n        residentManagement.residentList[msg.sender].age = this.calculateAge(\r\n            DoBDay,\r\n            DoBMonth,\r\n            DoBYear\r\n        );\r\n        residentManagement.residentList[msg.sender].income = 0;\r\n        residentManagement.residentList[msg.sender].taxDept = 0;\r\n        residentManagement.residentList[msg.sender].addr.street = _street;\r\n        residentManagement.residentList[msg.sender].addr.city = _city;\r\n        residentManagement.residentList[msg.sender].addr.state = _state;\r\n        residentManagement.residentList[msg.sender].addr.zip = _zip;\r\n        residentManagement.residentAddresses.push(msg.sender);\r\n        residentManagement.totalResident++;\r\n    }\r\n\r\n    function updateResident(\r\n        string memory _name,\r\n        string memory _street,\r\n        string memory _city,\r\n        string memory _state,\r\n        uint _zip,\r\n        uint DoBDay,\r\n        uint DoBMonth,\r\n        uint DoBYear\r\n    ) public shouldExist {\r\n        require(\r\n            residentManagement.residentList[msg.sender].age != 0,\r\n            \"Resident not registered\"\r\n        );\r\n        residentManagement.residentList[msg.sender].name = _name;\r\n        residentManagement.residentList[msg.sender].age = this.calculateAge(\r\n            DoBDay,\r\n            DoBMonth,\r\n            DoBYear\r\n        );\r\n        residentManagement.residentList[msg.sender].addr.street = _street;\r\n        residentManagement.residentList[msg.sender].addr.city = _city;\r\n        residentManagement.residentList[msg.sender].addr.state = _state;\r\n        residentManagement.residentList[msg.sender].addr.zip = _zip;\r\n    }\r\n\r\n    function declareIncome(uint _income) public shouldExist isAdult {\r\n        residentManagement.residentList[msg.sender].income += _income;\r\n        uint tax = (_income * taxRate) / 100;\r\n        residentManagement.residentList[msg.sender].taxDept += tax;\r\n    }\r\n\r\n    function payTax() public payable shouldExist isAdult returns (uint) {\r\n        require(\r\n            residentManagement.residentList[msg.sender].age != 0,\r\n            \"Resident not registered\"\r\n        );\r\n        require(\r\n            residentManagement.residentList[msg.sender].taxDept != 0,\r\n            \"No tax dept\"\r\n        );\r\n        require(\r\n            residentManagement.residentList[msg.sender].taxDept <= msg.value,\r\n            \"Insufficient amount\"\r\n        );\r\n        residentManagement.residentList[msg.sender].taxDept -= msg.value;\r\n        return msg.value;\r\n    }\r\n\r\n    //login as resident\r\n    function getMeResident() public view shouldExist returns (Resident memory) {\r\n        return residentManagement.residentList[msg.sender];\r\n    }\r\n\r\n    function getTaxDept() public view shouldExist returns (uint) {\r\n        return residentManagement.residentList[msg.sender].taxDept;\r\n    }\r\n}\r\n",
  "sourcePath": "C:\\Users\\mustafa.c\\Documents\\GitHub\\web3-resident-management\\backend\\contracts\\ResidentRegistration.sol",
  "compiler": {
    "name": "solc",
    "version": "0.8.13+commit.abaa5c0e.Emscripten.clang"
  },
  "schemaVersion": "3.4.14",
  "updatedAt": "2023-08-01T12:39:44.349Z",
  "devdoc": {
    "kind": "dev",
    "methods": {
      "owner()": {
        "details": "Returns the address of the current owner."
      },
      "renounceOwnership()": {
        "details": "Leaves the contract without owner. It will not be possible to call `onlyOwner` functions. Can only be called by the current owner. NOTE: Renouncing ownership will leave the contract without an owner, thereby disabling any functionality that is only available to the owner."
      },
      "transferOwnership(address)": {
        "details": "Transfers ownership of the contract to a new account (`newOwner`). Can only be called by the current owner."
      }
    },
    "version": 1
  },
  "userdoc": {
    "kind": "user",
    "methods": {},
    "version": 1
  }
}